:020000040800F2
:1020000000500020713400086D3400086B34000863
:102010006B3400086B3400086B34000800000000CB
:102020000000000000000000000000006D34000807
:102030006D340008000000006D3400085D210008C8
:102040006B3400086B3400086B3400086B340008F4
:102050006B3400086B3400086B3400086B340008E4
:102060006B3400086B3400086B3400086B340008D4
:102070006B3400086B3400086B3400086B340008C4
:102080006B3400086B3400086B3400086B340008B4
:102090006B3400086B3400086B3400086B340008A4
:1020A0006B3400086B3400086B3400086B34000894
:1020B0006B3400086B3400086B3400086B34000884
:1020C0006B3400086B3400086B3400086B34000874
:1020D0006B3400086B3400086B3400086B34000864
:1020E0006B3400086B3400086B3400086B34000854
:1020F0006B3400086B3400086B3400086B34000844
:102100006B3400086B3400086B3400086B34000833
:102110006B3400086B3400086B3400086B34000823
:102120006B3400086B3400086B3400086B34000813
:102130006B3400086B3400086B3400086B34000803
:102140006B3400086B3400086B3400086B340008F3
:1021500008B500F0D1FA01F0F7F9704710B50F4C4F
:102160002268A3882AB9BDE8104019460C4800F03F
:102170008BBCA26812F001020BD000220221084899
:1021800000F04AFBA288074B1A60A3680133A360E2
:1021900010BD1146024800F03FFBF6E7900000201A
:1021A000000801401008014010B500F0FFF9144C80
:1021B000206000F01BFC2368FBB94FF48073002003
:1021C000A38001F0A5F90F4801F09AF9012000F071
:1021D000D3F901F0A9F901F0AFF923680121012B2E
:1021E00084BF4FF40042084B084888BF1A6000F0D3
:1021F00001F900F095F9002010BD4FF40073DEE7FF
:1022000090000020A0BB0D0010080140743B0008A6
:10221000054AD37810791B0403EB0063507803441C
:10222000907803EB002070479C0000202DE9F041DE
:102230001D460B780F4603F07F03212B144666D111
:102240004B78013B052B62D8DFE803F0034163388C
:10225000993FDFF840810DB12B8823B9062388F818
:102260000030012024E0CA788B78484E43EA0223EC
:10227000A6F808342B882168A6F800342A8830464E
:1022800001F0DEFB7B883146B3B93378212B13D1C3
:10229000FFF7BEFF3E4B1B68984203D3D6F80C34C1
:1022A000984207D301200A2381F8100488F80030EF
:1022B000BDE8F081C6F804040323D0E7354B1A7853
:1022C0000A2ACED102221A70CBE7324BFAE7314A02
:1022D0001178092917D84FF40973CB40DB0712D5C1
:1022E00078882A4B81B2A3F80804092001291070CC
:1022F000B7D9D3F8043402392A8803EB8121206846
:1023000001F09EFBADE70122002100F069FC0020F6
:10231000CEE7204E27683378062B26D00A2B29D00B
:10232000032B24D104231949337091F80080FFF75F
:102330006FFFB1F808240146404600F01BF9002366
:102340003B702368020A58702368000C9A70236857
:102350003278D87023681A71002223685A710623D4
:102360000D4A2B80069B1A607BE707233370002001
:102370000346E5E7054B002093F81034E0E7012021
:10238000044A236812781A70288091E79C00002084
:1023900000000020040000209D23000810B5134C0D
:1023A0002278042A02D0072A1CD010BD00F09EFB20
:1023B0000F49B1F8080458B9FFF72AFF0B78412BF1
:1023C00001D100F0B5F800F0A3FB05232370ECE782
:1023D000D1F804340238B1F8002403EB802000F077
:1023E000B7F8F0E7BDE81040FFF7B2BE04000020E8
:1023F0009C000020F0B564263B4A3C4B04321B682D
:1024000052F8044C126823441344394A85B01268C8
:10241000384CC2F30B02A2F10807B7FBF6F5092D01
:1024200051D9392584F84A5084F84B50402A08BFC6
:102430008022314E920202F10062C6F80C242F4A2B
:1024400084F84C50126802F00302032A03D12C4A8C
:102450001268920702D5302284F872200024294D98
:1024600023FA04F202F00F0204343032202C05F873
:10247000012DF5D10022244C135D392B84BF073385
:1024800013550132082AF7D100234FF4806486F8EF
:10249000193402941D4C1E4B0194042403F11002C4
:1024A000002918BF13461B4A009402F10D0100F0E9
:1024B0003DFB7F222121184B1860184B05B0BDE869
:1024C000F04000F050BC06FB15760A2705F1300CF1
:1024D000B6FBF7F584F84AC005F1300C07FB15652B
:1024E00084F84BC03035A1E7ECF7FF1FE8F7FF1F7A
:1024F000E0F7FF1F040000209C0000202020024085
:102500001C200240B5040020AD040020C0050020BE
:1025100008000020683A0008BC0500202D220008B1
:1025200008B5024C206800F029FBFBE7BC05002041
:1025300038B5064D20F47F742B6824F00304A342C1
:1025400003D0204600F02CF92C6038BD800000201C
:10255000F8B50D4616460C46471A631B9E4203DC2F
:10256000BDE8F840FFF7F9BD381934F8021B00F058
:10257000E7F8F2E76420704770470949094A0B6899
:1025800018680240B2F1005F09D1074AC3F314038F
:1025900013600B681A6882F308885B6818477047F5
:1025A000000000200000FE2F08ED00E04D4B70B54C
:1025B0001D461C6814F00F0440F08B8040F202307E
:1025C00000F06BFA40F2033000F067FA4FF441700C
:1025D00000F063FA40F2973000F05FFA40F2172003
:1025E00000F068FA4FF4407000F057FA40F286208D
:1025F00000F053FA21464FF4C04302223A4800F05B
:102600000BF94FF4C041384800F036FA6424364ED6
:102610004FF40051304600F034FA013CF8D1002864
:1026200049D14FF4407000F038FA304A214613681F
:102630002F4843F0007313604FF40043022200F070
:10264000EBF84FF400412A4800F018FA6424284EB1
:102650004FF40041304600F014FA013CF8D1002854
:102660003CD04FF4004301220221224800F0D4F86C
:102670004FF400411F4800F001FA4FF400430122DB
:1026800002211B4800F0C8F84FF40041184800F040
:10269000F5F902242B68022223F070632B602B686B
:1026A000032143F0C0632B6011484FF4807300F0A6
:1026B000B3F8012C14D14FF480510D4800F0DEF92D
:1026C0004FF4805301220221094800F0A5F820466A
:1026D00070BD1A6822F003021A606AE70124D9E784
:1026E0000224F4E7041002400010014004000140FD
:1026F00000080140000C0140054A136823F0F00374
:1027000043F0800313600022024B1A60704700BF41
:102710000008014008ED00E0064B1868064B1B88D6
:10272000B3F5007F82BF054B1B68184300F03500EE
:10273000704700BF0C200240E0F7FF1F4C20024012
:1027400038B504460D4600F0EBF9114B1B88B3F584
:10275000007F18D90F4B9C4215D90F4A136843F0DC
:1027600001031360258000F0DBF9094B1B88B3F5EA
:10277000007F0AD9074B9C4207D9074A136823F008
:102780000103136038BD054AE8E7044AF6E700BFD5
:10279000E0F7FF1FFFFF0708502002401020024013
:1027A00010B5044600F0BCF9154B1B88B3F5007F4B
:1027B0001DD9144B9C421AD9134B1A6842F00202DD
:1027C0001A60124A14601A6842F040021A6000F05F
:1027D000A7F90B4B1B88B3F5007F0FD9094B9C421F
:1027E0000CD9094A136823F00203136010BD084B8B
:1027F0001A6842F002021A60064AE3E7044AF1E767
:10280000E0F7FF1FFFFF070850200240542002405E
:1028100010200240142002402DE9F04300264FF022
:102820000F0E43F6F8789C46036847684CFA06F4A6
:10283000E4071BD5072E94BF9946B946B4B28BBFA7
:102840004444A400A400A4B288BFA4B20EFA04F5C4
:1028500029EA0509A51C02FA05F501FA04F42C433E
:1028600044EA0904082E2CBF274623460136102EC1
:10287000DCD103604760BDE8F0830000024A1368C2
:1028800043F080731360704700100240062822D87E
:10289000DFE800F004090E13181D1F000F4B186825
:1028A000C0F3406070470D4B1868C0F3C0607047BC
:1028B0000A4B1868C0F340707047084B1868C0F3A3
:1028C00040407047054B1868C0F340007047044B08
:1028D000F9E7044BF7E70020704700BF0010024003
:1028E0002010024024100240024608B51046FFF7AF
:1028F000CDFF0028FAD008BD06280CD8DFE800F08C
:1029000004060C11161B1D00FFF7B8BF0C4A136814
:1029100043F0806313607047094A136843F08053A3
:10292000F8E7074A136843F48033F3E7044A13686F
:1029300043F00103EEE7034AF9E7034AF7E700BF74
:10294000001002402010024024100240034A136885
:1029500023F0030318431060704700BF04100240C7
:10296000034A136823F4701343EA804010607047F1
:1029700004100240034A136823F4803343EA004002
:102980001060704704100240034A136823F40033B8
:1029900043EA40401060704704100240034A136845
:1029A00023F4404343EA8030106070470410024033
:1029B000034A136823F4605343EAC0201060704751
:1029C00004100240034A136823F4E06343EA002042
:1029D0001060704704100240034A136823F0F003AC
:1029E00043EA0010106070470410024008B504204C
:1029F000FFF782FF0420FFF777FF0020FFF7A6FF15
:102A00000320FFF779FF0320FFF76EFF0120FFF798
:102A10009DFF0020FFF7E0FF0320FFF7BFFF04202A
:102A2000FFF7D0FF0020FFF7C3FF022000F054F8AB
:102A30000720FFF795FF0120FFF79CFF0020FFF71D
:102A4000A3FFFFF71BFF0020FFF74EFF0220FFF759
:102A50007DFF044B044A05491360054A1160054A8D
:102A6000136008BD00A24A04840000200051250222
:102A7000880000208C00002001617047090401617A
:102A80007047806808407047C36801EA030221EA82
:102A9000030141EA024101617047430900F01F024E
:102AA000012003F1804303F5043319689040084383
:102AB0001860704700F01F024309012003F18043B2
:102AC00003F5043319689040014319601A6822EA3B
:102AD0000000186070470000034A136823F00703E2
:102AE00018431060704700BF00200240054A136879
:102AF00043F080031360044B044A1A6002F18832E9
:102B00001A607047102002400420024023016745EC
:102B1000024A136843F0800313607047102002409C
:102B200008B5FFF7F9FDC307FBD408BD2DE9F04157
:102B30001E4603680546884617469847069BC0F818
:102B4000DC50C360079BC0E900870361BDF82030FB
:102B500086608382064B0367064BC366064B83661B
:102B60000023C0E93233C0E93433BDE8F08100BF4F
:102B70008D2D0008FD2D00087F2E0008D0F8DC30D8
:102B80005B6A184710B4D0F8DC40A468A44610BCB7
:102B9000604737B5002504460368C582DB792A46BD
:102BA00029460095FFF7EEFFD4F8DC3029465B6834
:102BB00020469847E3691BB103B0BDE83040184791
:102BC00003B030BD10B4D0F8DC40E469A44610BCBA
:102BD000604710B4D0F8DC40246AA44610BC6047BB
:102BE000D0F8DC301B691847D0F8DC309B691847F7
:102BF000D0F8DC305B69184710B50122002104468B
:102C0000FFF7EEFF002384F82C3010BD70B5036889
:102C1000828FC48EDB79A41A9C42A8BF1C46816BAC
:102C2000A6B20A44334600210546FFF7D2FF86428A
:102C300005D02846FFF7E0FF4FF0FF3070BDAB8FA7
:102C4000A0B21E44AE87F9E710B503680446D979EF
:102C5000838F826B99420FD20B460021FFF7B2FFA0
:102C6000022384F82C302368A26BD979A38F0A44FD
:102C70005B1AA263A38710BD0021FFF7A3FF94F89E
:102C80004430002B0CBF0323022384F82C30002394
:102C900084F84430A387A363EDE72DE9F74F04469A
:102CA0000E4600F1480500F1680B00F1380700F10D
:102CB0003C0800F1400AD5F80090B9F1000F08D0A7
:102CC000337869792A790B409A420BD008355D45F3
:102CD000F1D143463A463146204603B0BDE8F04FB5
:102CE00000F070BBCDF800A043463A46314620467E
:102CF000C8470128EAD803B0BDE8F08F38B50369AA
:102D0000044683638B79CA790D4643EA022383879D
:102D1000FFF7C3FF10B3EB88BBB1A28F21689342CA
:102D2000C9790ED97AB192FBF1F301FB1323B3FAFF
:102D300083F35B0984F844302046BDE83840FFF750
:102D400083BF0023F6E71346F4E71A4619462046E8
:102D5000FFF738FF042384F82C3038BD2046BDE847
:102D60003840FFF749BF70B5002600EBC605AC6CD4
:102D70002CB10136042EF8D14FF0FF3070BD85F82C
:102D80004C1085F84D20AB642046F7E770B5002560
:102D9000044600F13006056401222946FFF728FFAA
:102DA0000823324629462046FFF713FF082804D09F
:102DB0002046BDE87040FFF71FBFE38E2BB93146B8
:102DC0002046BDE87040FFF799BF94F93020002AF3
:102DD000F5DBA28A9A42EBD32269A587A263226817
:102DE0002046D2799A4234BF05230623002284F874
:102DF0002C301146BDE87040FFF7FABE90F82C3039
:102E000010B5062B044612D0072B27D0052B21D155
:102E1000FFF7FCFE002809DBA28FE38E9B1A2268D5
:102E2000D279934202DC062384F82C3010BDFFF7E0
:102E3000EDFE0028FADB04F130012046FFF72DFFFC
:102E400038B1002320461A461946FFF7BBFE04237B
:102E5000EAE72046BDE81040FFF7CEBE00231A4641
:102E60001946FFF7B6FE002384F82C30236C1BB103
:102E700004F130012046984700232364D6E790F8F8
:102E80002C3010B5032B044607D0042B0ED0022B98
:102E900023D1BDE81040FFF7D7BE0723BDE810409F
:102EA000002280F82C301146FFF7A2BE036C13B14C
:102EB00000F13001984794F8303053B994F831302C
:102EC000052B06D1618ED4F8DC30C9B25B68204690
:102ED0009847002384F82C3010BDBDE81040FFF760
:102EE0008BBEF8B50D464988044679B103680D26B6
:102EF000587C0023984201D80020F8BD626806FB88
:102F0000032252798A4203D00133F3E74FF0FF33B3
:102F10000133DBB2E3754BB9D4F8DC302046DB6813
:102F20009847D4F8C8309BB90120E6E70D225343F7
:102F300062680D3B13440022104619799142EBD987
:102F4000D3F809101601715801B108700132F4E785
:102F5000002304F1C806A3642365A365236604F176
:102F6000D80756F8043B13B1698820469847B74202
:102F7000F7D1D9E719881268012984BF0121198086
:102F8000C37D2BB141680D2000FB031313F8083CEF
:102F900013700120704730B50D24C57D40686C4327
:102FA0000D3C04448D88207985420CD20120188084
:102FB0008B88D4F809001B011B5803B11B78012032
:102FC0001268137030BD0020FCE719880120022927
:102FD00084BF02211980002311680B70126853709E
:102FE000704710B514461A88022A84BF02221A803C
:102FF0008988C9B2FFF7F8FD003018BF0120002210
:1030000023681870236801205A7010BD08B589889C
:103010000122C9B2FFF7E4FD012008BD08B5898887
:103020000022C9B2FFF7DCFD012008BD10B50B7806
:1030300073B94C887F2C0BD8D0F8DC30847593F8AA
:1030400030201AB149885B68C9B29847012000E076
:10305000002010BD0D2270B51C46C37D5A43436845
:103060000D3A13441D798A88954218D9D3F809502E
:103070001201AE184B8836799E4210D9AA5852B127
:103080001370D0F8D83013B14A8889889847002344
:103090000120238070BD002BF3D01046FAE70020FA
:1030A000F8E72DE9F04F4D881F462B0A022B89B017
:1030B000164611D0032B00F0E580012B40F01A8159
:1030C00002683988326012788A4228BF0A463A80FC
:1030D000012009B0BDE8F08F0D26EDB26E43036903
:1030E000D0F80480136018F806503C880193A5427C
:1030F00028BF254608EB06032A4619460198029385
:1031000000F09EFC0022019B641B18F806602B4413
:10311000A4B20492029A1179BDF81020914203D80A
:10312000019B5E803D80D3E7049A12010792029AC8
:103130000799D2F809200A44D2F80890B9F1000F93
:1031400014D099F800801846A04528BFA0464946EB
:10315000424600F075FC034699F80020A4EB0804F1
:10316000454416444344A4B2ADB2B6B2002205921F
:10317000029A0799D2F809200A441079BDF8141070
:10318000884202D8049A0132C3E715200599D2F883
:103190000CA000FB01F91AF809800AEB090BA04505
:1031A00028BFA04659464246184600F049FC03464F
:1031B0001AF80920DBF80D10A4EB08044544164466
:1031C0004344A4B2ADB2B6B2A9B1DBF8118018463F
:1031D000A045A8BFA0461FFA88F94A4600F030FC77
:1031E0000346DBF81120A4EB09044D4416444B447C
:1031F000A4B2ADB2B6B24FF000099BF804101FFAAA
:1032000089F2914202D8059A0132B0E7DBF8092031
:10321000C9EB091A069252440392069A039912F8CE
:103220000A801846A04528BFA046424600F008FC88
:103230000346069AA4EB080412F80A2045441644F3
:10324000039A4344D2F80710A4B2ADB2B6B2B1B1FA
:10325000D2F80B801846A045A8BFA0461FFA88FAEE
:10326000524600F0EDFB0346039AA4EB0A04D2F8A1
:103270000B20554416445344A4B2ADB2B6B209F182
:103280000109BAE715F0FF0504690DD10923A37000
:103290000423E37023703B88042B28BF04233B8066
:1032A00003236370346013E783681BB3C268013D76
:1032B000AA421FDD40F20942898891421AD153F88F
:1032C0002550284600F0C7FB01304000C0B22070F6
:1032D0003B882946984228BF184638803B884A1BBD
:1032E0005B08013B9342DBDD11F8013B04EB42023A
:1032F0005380F3E70020ECE619880120022984BFFF
:1033000002211980002311680B70126853707047F6
:1033100010B44C78092C12D8DFE804F00D1111110B
:10332000110F0B110905074CA44610BC6047064C51
:10333000FAE7064CF8E7064CF6E7064CF4E70020FF
:1033400010BC7047E32E0008752F0008A33000085A
:10335000CB2F00082D30000810B44C780A2C08D070
:103360000B2C02D03CB9054C00E0054CA44610BC27
:103370006047044CFAE7002010BC7047F93200089F
:1033800055300008972F000810B44C78012C05D058
:1033900010D3032C07D0002010BC70474C88002CA1
:1033A000F9D1054C03E04C88002CF4D1034CA44621
:1033B00010BC6047024CFAE71D3000080D300008D1
:1033C000E32F000810B40C7814F0600F06D104F05D
:1033D0001F04012C08D004D3022C08D0002010BCFC
:1033E000704710BCFFF794BF10BCFFF7B5BF10BC0F
:1033F000FFF7CABF08B540F29730FFF74EFB002336
:10340000054A064913600B6041F80C3C4FF41C431D
:103410000348136008BD00BF405C0040505C0040A2
:10342000B804002001320239521001EB42029142ED
:1034300000D1704731F8023F043040F8043CF6E711
:10344000F0B502F0010652080D46044613462BB9AA
:103450001EB111F8223000F81230F0BD35F8047BAF
:10346000013B24F8027B9BB2F1E7FEE770470000C6
:103470000022184C184919485318834216D30021CA
:10348000174A934216D3174A174C1368174D43F443
:1034900000731360AC4210D3154C164DAC4210D3E0
:1034A000FEF782FE144C154DAC420ED31359535007
:1034B0000432E1E719600433E3E754F8043B98472A
:1034C000E8E754F8043B9847E8E754F8043B98478A
:1034D000EAE700BFA83B00080000002090000020A1
:1034E000C009002014ED00E0A83B0008A83B00083C
:1034F000A83B0008A83B0008A83B0008A83B000820
:10350000024B20F07F401860704700BF14E000E0DD
:10351000044A00F00400136823F00403034313601B
:10352000704700BF10E000E0024A136843F0020356
:103530001360704710E000E0024A136843F0010393
:103540001360704710E000E0014B024A1A60FEE78A
:103550000CED00E00100FA05024B41F0800119601A
:10356000704700BF4C5C00403E2A0F4B4FEAC10140
:103570000DD91B68D0069BB219440C4B18BF203ADA
:103580000B4843EA4212490092B2425070471B680E
:10359000D0079BB248BF013219449202044B490044
:1035A00092B25A50704700BF505C00400080FFFF4D
:1035B0000C6000402DE9F3411E464FF0C06301F05E
:1035C0007F07BC00054604F18044404804F5B84438
:1035D000CDE90003236802A823F4E04323F07F032E
:1035E0003B439BB22360236800EB420223F4EC438D
:1035F00032F8082C23F07003134349B29BB2002920
:10360000DDF82080236032484FEAC70C2ADB4FB335
:1036100003682A8B9BB29C442E4B4FEA4C0C43F818
:103620000C20394632462846FFF79EFFB8F1000FBE
:1036300046D1236823F4415323F030031B041B0CB1
:10364000236022682B8B22F4804222F0700292B217
:1036500082F4405242F4004242F080021E44226052
:103660002E832AE002682B8B92B26244520002F150
:10367000804202F5C0421360B8F1000F04D00C2262
:1036800002FB0752C2F868802268334422F4E04209
:1036900022F030021204120C22602268002922F467
:1036A000E04222F0400292B282F0200242F4004254
:1036B00042F0800222602B83AADA02B0BDE8F081DA
:1036C0000C2303FB0757C7F86C80B2E70002000425
:1036D000505C00400860004048F2800170B50B4A21
:1036E0000B4E0C4D0C4C136833400B439BB21360D4
:1036F00013682B400B439BB242F8043BA242F2D129
:103700000368DB7920335B00038370BD045C0040F9
:10371000BF8FFFFF8FBFFFFF205C004010B589B94E
:10372000002A0CBF202410242A48036823F4E04315
:1037300023F0400363401BB243F4004343F0800393
:103740009BB203600B0623D5002A0CBF2022102257
:1037500001F07F014FEA810101F1804101F5B8419B
:103760000B6823F4E04323F0400383EA02031BB217
:1037700043F4004343F080039BB20B6007D10B6816
:1037800023F4E04323F030031B041B0C0B6010BD3B
:10379000890001F1804101F5B8413AB90B6823F481
:1037A000415323F030031B041B0C0B60002A0CBF99
:1037B0004FF440524FF480520B6823F4804323F0BF
:1037C000700353401BB243F4004343F080039BB2A9
:1037D000DCE700BF005C00400B060ED501F07F0166
:1037E000890001F1804101F5B841086800F030001E
:1037F000102814BF002001207047890001F180418A
:1038000001F5B841086800F44050B0F5805FF0E77A
:103810000B0612D40B4B0C485A54890001F180411D
:1038200001F5B8410B6803409BB23AB183F40053F1
:1038300043F4004343F080030B60704783F440532C
:10384000F6E700BFB40500208FBFFFFF01F07F0146
:10385000F8B58C0004F1804404F5B8441D46236893
:10386000944603F03003302B28D0154FCE003A6831
:10387000614692B23244520002F1804202F5C042E7
:1038800010882A46400000F1804000F5C040FFF754
:10389000C9FD39680B4B89B20E4476009D512268F0
:1038A00022F4E04222F0400292B282F0300242F46E
:1038B000004242F0800222602846F8BD0025FBE766
:1038C000505C004004600040F8B58C0004F1804476
:1038D00004F5B8441D4623680E4603F44053B3F57F
:1038E000405F10463AD01E49F2000B681D4F9BB254
:1038F00013445B00FB58C3F30903AB4206DA0B68C1
:103900009BB213445B00FD58C5F309050B689BB2DD
:103910001A44154B5200995A2A46490001F1804138
:1039200001F5C041FFF78CFD236823F0F0031B0570
:103930001B0D43F0800323600C4B9B5D63B9226831
:1039400022F4804222F0700292B282F4405242F499
:10395000004242F0800222602846F8BD0025FBE7C5
:10396000505C00400C60004008600040B40500203E
:10397000314A70B51368044613F4806F9EB2154641
:1039800008D0BDE870404FF6FF3313604023038337
:10399000FFF7FFB8190418D503F00F018A0002F1F0
:1039A000804213F0100302F5B8422FD0136813F4CD
:1039B000006F0CBF0123022301EB410003441A33C3
:1039C00054F823305BB320469847320505D54FF2B3
:1039D000FF732B60236A03B19847F30405D54EF6B5
:1039E000FF732B60636A03B1984716F4007F134E90
:1039F00005D04FF6FF52A36A2A60CBB19847A36A5D
:103A0000B3B1336843F40073336070BD106820F0C5
:103A1000F0000005000D40F400401060CCE7136892
:103A200023F0F0031B051B0D43F080031360CCE76C
:103A3000336823F40073E7E7445C0040405C0040D7
:103A400010B5431E0A44914200D110BD11F8014B3C
:103A500003F8014FF7E7034613F8012B002AFBD1C7
:103A6000181A01387047000009020000010100C067
:103A700032883A00081201000200000040501D1771
:103A800060000101020301000000000001000000CD
:103A900000000000983A00080904000000FE01023E
:103AA0000400000000AD3A00080900000009210BE5
:103AB000FF0000041A01426C61636B20537068655B
:103AC000726520546563686E6F6C6F67696573001B
:103AD000426C61636B204D616769632028444655E1
:103AE00020557067726164652920666F7220535497
:103AF0004C696E6B2F446973636F766572792C2005
:103B0000284669726D776172652076312E362E31C6
:103B10002D35352D67306635653535342D64697240
:103B200074792900426C61636B204D616769632081
:103B300028557067726164652920666F722053543E
:103B40004C696E6B2F446973636F766572792C20B4
:103B5000284669726D776172652076312E362E3176
:103B60002D35352D67306635653535342D646972F0
:103B700074792900F533000859350008B535000877
:103B8000D93600081D37000811380008D937000859
:103B90004D380008C93800087139000800000000DD
:083BA00000000000000000001D
:103BA8000000000802000000B63A0008243B0008A4
:103BB800AD04002028000020B63A0008D03A0008DA
:103BC800AD0400205800002040496E7465726E6193
:103BD8006C20466C6173682020202F307830383094
:103BE80030303030302F382A3030314B612C303083
:103BF800302A3030314B670040496E7465726E610F
:103C08006C20466C6173682020202F307830383063
:103C180030303030302F382A3030314B67000000D8
:103C2800FFFFFFFF00127A0000127A0000127A00EC
:04000005080034714A
:00000001FF
